{
  "contractName": "DeCert",
  "abi": [
    {
      "constant": false,
      "inputs": [
        {
          "name": "_tokenAddress",
          "type": "address"
        }
      ],
      "name": "setToken",
      "outputs": [],
      "payable": false,
      "stateMutability": "nonpayable",
      "type": "function"
    },
    {
      "constant": true,
      "inputs": [
        {
          "name": "",
          "type": "address"
        },
        {
          "name": "",
          "type": "uint256"
        }
      ],
      "name": "certificateMap",
      "outputs": [
        {
          "name": "issuer",
          "type": "address"
        },
        {
          "name": "owner",
          "type": "address"
        },
        {
          "name": "domain",
          "type": "string"
        },
        {
          "name": "validityStart",
          "type": "uint256"
        },
        {
          "name": "validityEnd",
          "type": "uint256"
        },
        {
          "name": "serialID",
          "type": "uint256"
        },
        {
          "name": "validVotes",
          "type": "uint256"
        },
        {
          "name": "invalidVotes",
          "type": "uint256"
        },
        {
          "name": "listID",
          "type": "uint256"
        }
      ],
      "payable": false,
      "stateMutability": "view",
      "type": "function"
    },
    {
      "constant": false,
      "inputs": [
        {
          "name": "_crowdsaleAddress",
          "type": "address"
        }
      ],
      "name": "setCrowdsale",
      "outputs": [],
      "payable": false,
      "stateMutability": "nonpayable",
      "type": "function"
    },
    {
      "constant": true,
      "inputs": [
        {
          "name": "_voteID",
          "type": "uint256"
        }
      ],
      "name": "getVote",
      "outputs": [
        {
          "name": "voter",
          "type": "address"
        },
        {
          "name": "listID",
          "type": "uint256"
        },
        {
          "name": "valid",
          "type": "bool"
        },
        {
          "name": "votes",
          "type": "uint256"
        }
      ],
      "payable": false,
      "stateMutability": "view",
      "type": "function"
    },
    {
      "constant": true,
      "inputs": [
        {
          "name": "_issuer",
          "type": "address"
        },
        {
          "name": "_serialID",
          "type": "uint256"
        }
      ],
      "name": "getCertificate",
      "outputs": [
        {
          "name": "issuer",
          "type": "address"
        },
        {
          "name": "serialID",
          "type": "uint256"
        },
        {
          "name": "owner",
          "type": "address"
        },
        {
          "name": "validityStart",
          "type": "uint256"
        },
        {
          "name": "validityEnd",
          "type": "uint256"
        },
        {
          "name": "validVotes",
          "type": "uint256"
        },
        {
          "name": "invalidVotes",
          "type": "uint256"
        }
      ],
      "payable": false,
      "stateMutability": "view",
      "type": "function"
    },
    {
      "constant": true,
      "inputs": [],
      "name": "owner",
      "outputs": [
        {
          "name": "",
          "type": "address"
        }
      ],
      "payable": false,
      "stateMutability": "view",
      "type": "function"
    },
    {
      "constant": false,
      "inputs": [
        {
          "name": "_issuer",
          "type": "address"
        },
        {
          "name": "_serialID",
          "type": "uint256"
        },
        {
          "name": "_valid",
          "type": "bool"
        },
        {
          "name": "_votes",
          "type": "uint256"
        }
      ],
      "name": "voteOnCert",
      "outputs": [],
      "payable": false,
      "stateMutability": "nonpayable",
      "type": "function"
    },
    {
      "constant": true,
      "inputs": [
        {
          "name": "_certID",
          "type": "uint256"
        }
      ],
      "name": "getCertificateByID",
      "outputs": [
        {
          "name": "issuer",
          "type": "address"
        },
        {
          "name": "serialID",
          "type": "uint256"
        },
        {
          "name": "owner",
          "type": "address"
        },
        {
          "name": "validityStart",
          "type": "uint256"
        },
        {
          "name": "validityEnd",
          "type": "uint256"
        },
        {
          "name": "validVotes",
          "type": "uint256"
        },
        {
          "name": "invalidVotes",
          "type": "uint256"
        }
      ],
      "payable": false,
      "stateMutability": "view",
      "type": "function"
    },
    {
      "constant": true,
      "inputs": [],
      "name": "crowdsale",
      "outputs": [
        {
          "name": "",
          "type": "address"
        }
      ],
      "payable": false,
      "stateMutability": "view",
      "type": "function"
    },
    {
      "constant": false,
      "inputs": [
        {
          "name": "_owner",
          "type": "address"
        },
        {
          "name": "_domain",
          "type": "string"
        },
        {
          "name": "_serialID",
          "type": "uint256"
        },
        {
          "name": "_duration",
          "type": "uint256"
        }
      ],
      "name": "addCertificate",
      "outputs": [],
      "payable": false,
      "stateMutability": "nonpayable",
      "type": "function"
    },
    {
      "constant": false,
      "inputs": [
        {
          "name": "newOwner",
          "type": "address"
        }
      ],
      "name": "transferOwnership",
      "outputs": [],
      "payable": false,
      "stateMutability": "nonpayable",
      "type": "function"
    },
    {
      "constant": true,
      "inputs": [],
      "name": "token",
      "outputs": [
        {
          "name": "",
          "type": "address"
        }
      ],
      "payable": false,
      "stateMutability": "view",
      "type": "function"
    },
    {
      "anonymous": false,
      "inputs": [
        {
          "indexed": false,
          "name": "issuer",
          "type": "address"
        },
        {
          "indexed": false,
          "name": "owner",
          "type": "address"
        },
        {
          "indexed": false,
          "name": "validityStart",
          "type": "uint256"
        },
        {
          "indexed": false,
          "name": "validityEnd",
          "type": "uint256"
        },
        {
          "indexed": false,
          "name": "serialID",
          "type": "uint256"
        }
      ],
      "name": "CertificateAdded",
      "type": "event"
    },
    {
      "anonymous": false,
      "inputs": [
        {
          "indexed": false,
          "name": "voter",
          "type": "address"
        },
        {
          "indexed": false,
          "name": "issuer",
          "type": "address"
        },
        {
          "indexed": false,
          "name": "serialID",
          "type": "uint256"
        },
        {
          "indexed": false,
          "name": "valid",
          "type": "bool"
        },
        {
          "indexed": false,
          "name": "votes",
          "type": "uint256"
        }
      ],
      "name": "NewVote",
      "type": "event"
    },
    {
      "anonymous": false,
      "inputs": [
        {
          "indexed": false,
          "name": "debug",
          "type": "string"
        }
      ],
      "name": "A",
      "type": "event"
    },
    {
      "anonymous": false,
      "inputs": [
        {
          "indexed": true,
          "name": "previousOwner",
          "type": "address"
        },
        {
          "indexed": true,
          "name": "newOwner",
          "type": "address"
        }
      ],
      "name": "OwnershipTransferred",
      "type": "event"
    }
  ],
  "bytecode": "0x6060604052336000806101000a81548173ffffffffffffffffffffffffffffffffffffffff021916908373ffffffffffffffffffffffffffffffffffffffff1602179055506124b2806100536000396000f3006060604052600436106100ba576000357c0100000000000000000000000000000000000000000000000000000000900463ffffffff168063144fa6d7146100bf578063445e5470146100f8578063483a20b2146102605780635a55c1f014610299578063817bb331146103155780638da5cb5b146103ed578063996decdd146104425780639aa40771146104985780639c1e03a014610551578063f2867688146105a6578063f2fde38b14610634578063fc0c546a1461066d575b600080fd5b34156100ca57600080fd5b6100f6600480803573ffffffffffffffffffffffffffffffffffffffff169060200190919050506106c2565b005b341561010357600080fd5b610138600480803573ffffffffffffffffffffffffffffffffffffffff16906020019091908035906020019091905050610761565b604051808a73ffffffffffffffffffffffffffffffffffffffff1673ffffffffffffffffffffffffffffffffffffffff1681526020018973ffffffffffffffffffffffffffffffffffffffff1673ffffffffffffffffffffffffffffffffffffffff168152602001806020018881526020018781526020018681526020018581526020018481526020018381526020018281038252898181546001816001161561010002031660029004815260200191508054600181600116156101000203166002900480156102495780601f1061021e57610100808354040283529160200191610249565b820191906000526020600020905b81548152906001019060200180831161022c57829003601f168201915b50509a505050505050505050505060405180910390f35b341561026b57600080fd5b610297600480803573ffffffffffffffffffffffffffffffffffffffff169060200190919050506107fb565b005b34156102a457600080fd5b6102ba6004808035906020019091905050610a2b565b604051808573ffffffffffffffffffffffffffffffffffffffff1673ffffffffffffffffffffffffffffffffffffffff1681526020018481526020018315151515815260200182815260200194505050505060405180910390f35b341561032057600080fd5b610355600480803573ffffffffffffffffffffffffffffffffffffffff16906020019091908035906020019091905050610ca8565b604051808873ffffffffffffffffffffffffffffffffffffffff1673ffffffffffffffffffffffffffffffffffffffff1681526020018781526020018673ffffffffffffffffffffffffffffffffffffffff1673ffffffffffffffffffffffffffffffffffffffff16815260200185815260200184815260200183815260200182815260200197505050505050505060405180910390f35b34156103f857600080fd5b610400610ee2565b604051808273ffffffffffffffffffffffffffffffffffffffff1673ffffffffffffffffffffffffffffffffffffffff16815260200191505060405180910390f35b341561044d57600080fd5b610496600480803573ffffffffffffffffffffffffffffffffffffffff169060200190919080359060200190919080351515906020019091908035906020019091905050610f07565b005b34156104a357600080fd5b6104b96004808035906020019091905050610f1a565b604051808873ffffffffffffffffffffffffffffffffffffffff1673ffffffffffffffffffffffffffffffffffffffff1681526020018781526020018673ffffffffffffffffffffffffffffffffffffffff1673ffffffffffffffffffffffffffffffffffffffff16815260200185815260200184815260200183815260200182815260200197505050505050505060405180910390f35b341561055c57600080fd5b610564611120565b604051808273ffffffffffffffffffffffffffffffffffffffff1673ffffffffffffffffffffffffffffffffffffffff16815260200191505060405180910390f35b34156105b157600080fd5b610632600480803573ffffffffffffffffffffffffffffffffffffffff1690602001909190803590602001908201803590602001908080601f01602080910402602001604051908101604052809392919081815260200183838082843782019150505050505091908035906020019091908035906020019091905050611146565b005b341561063f57600080fd5b61066b600480803573ffffffffffffffffffffffffffffffffffffffff16906020019091905050611159565b005b341561067857600080fd5b6106806112ae565b604051808273ffffffffffffffffffffffffffffffffffffffff1673ffffffffffffffffffffffffffffffffffffffff16815260200191505060405180910390f35b6000809054906101000a900473ffffffffffffffffffffffffffffffffffffffff1673ffffffffffffffffffffffffffffffffffffffff163373ffffffffffffffffffffffffffffffffffffffff1614151561071d57600080fd5b80600560006101000a81548173ffffffffffffffffffffffffffffffffffffffff021916908373ffffffffffffffffffffffffffffffffffffffff16021790555050565b6001602052816000526040600020602052806000526040600020600091509150508060000160009054906101000a900473ffffffffffffffffffffffffffffffffffffffff16908060010160009054906101000a900473ffffffffffffffffffffffffffffffffffffffff169080600201908060030154908060040154908060050154908060060154908060070154908060080154905089565b6000809054906101000a900473ffffffffffffffffffffffffffffffffffffffff1673ffffffffffffffffffffffffffffffffffffffff163373ffffffffffffffffffffffffffffffffffffffff1614151561085657600080fd5b80600460006101000a81548173ffffffffffffffffffffffffffffffffffffffff021916908373ffffffffffffffffffffffffffffffffffffffff160217905550600560009054906101000a900473ffffffffffffffffffffffffffffffffffffffff1673ffffffffffffffffffffffffffffffffffffffff1663095ea7b382600560009054906101000a900473ffffffffffffffffffffffffffffffffffffffff1673ffffffffffffffffffffffffffffffffffffffff16635dcf8d2b6000604051602001526040518163ffffffff167c0100000000000000000000000000000000000000000000000000000000028152600401602060405180830381600087803b151561096457600080fd5b6102c65a03f1151561097557600080fd5b505050604051805190506000604051602001526040518363ffffffff167c0100000000000000000000000000000000000000000000000000000000028152600401808373ffffffffffffffffffffffffffffffffffffffff1673ffffffffffffffffffffffffffffffffffffffff16815260200182815260200192505050602060405180830381600087803b1515610a0c57600080fd5b6102c65a03f11515610a1d57600080fd5b505050604051805190505050565b600080600080610a39611fb0565b600386815481101515610a4857fe5b90600052602060002090600c0201608060405190810160405290816000820160009054906101000a900473ffffffffffffffffffffffffffffffffffffffff1673ffffffffffffffffffffffffffffffffffffffff1673ffffffffffffffffffffffffffffffffffffffff1681526020016001820161012060405190810160405290816000820160009054906101000a900473ffffffffffffffffffffffffffffffffffffffff1673ffffffffffffffffffffffffffffffffffffffff1673ffffffffffffffffffffffffffffffffffffffff1681526020016001820160009054906101000a900473ffffffffffffffffffffffffffffffffffffffff1673ffffffffffffffffffffffffffffffffffffffff1673ffffffffffffffffffffffffffffffffffffffff168152602001600282018054600181600116156101000203166002900480601f016020809104026020016040519081016040528092919081815260200182805460018160011615610100020316600290048015610c0f5780601f10610be457610100808354040283529160200191610c0f565b820191906000526020600020905b815481529060010190602001808311610bf257829003601f168201915b5050505050815260200160038201548152602001600482015481526020016005820154815260200160068201548152602001600782015481526020016008820154815250508152602001600a820160009054906101000a900460ff16151515158152602001600b820154815250509050806000015194508060200151610100015193508060400151925080606001519150509193509193565b6000806000806000806000610cbb611ff8565b600160008b73ffffffffffffffffffffffffffffffffffffffff1673ffffffffffffffffffffffffffffffffffffffff16815260200190815260200160002060008a815260200190815260200160002061012060405190810160405290816000820160009054906101000a900473ffffffffffffffffffffffffffffffffffffffff1673ffffffffffffffffffffffffffffffffffffffff1673ffffffffffffffffffffffffffffffffffffffff1681526020016001820160009054906101000a900473ffffffffffffffffffffffffffffffffffffffff1673ffffffffffffffffffffffffffffffffffffffff1673ffffffffffffffffffffffffffffffffffffffff168152602001600282018054600181600116156101000203166002900480601f016020809104026020016040519081016040528092919081815260200182805460018160011615610100020316600290048015610e5d5780601f10610e3257610100808354040283529160200191610e5d565b820191906000526020600020905b815481529060010190602001808311610e4057829003601f168201915b5050505050815260200160038201548152602001600482015481526020016005820154815260200160068201548152602001600782015481526020016008820154815250509050806020015195508060000151975080606001519450806080015193508060a0015196508060c0015192508060e0015191505092959891949750929550565b6000809054906101000a900473ffffffffffffffffffffffffffffffffffffffff1681565b610f1433858585856112d4565b50505050565b6000806000806000806000610f2d611ff8565b600289815481101515610f3c57fe5b906000526020600020906009020161012060405190810160405290816000820160009054906101000a900473ffffffffffffffffffffffffffffffffffffffff1673ffffffffffffffffffffffffffffffffffffffff1673ffffffffffffffffffffffffffffffffffffffff1681526020016001820160009054906101000a900473ffffffffffffffffffffffffffffffffffffffff1673ffffffffffffffffffffffffffffffffffffffff1673ffffffffffffffffffffffffffffffffffffffff168152602001600282018054600181600116156101000203166002900480601f01602080910402602001604051908101604052809291908181526020018280546001816001161561010002031660029004801561109c5780601f106110715761010080835404028352916020019161109c565b820191906000526020600020905b81548152906001019060200180831161107f57829003601f168201915b5050505050815260200160038201548152602001600482015481526020016005820154815260200160068201548152602001600782015481526020016008820154815250509050806020015195508060000151975080606001519450806080015193508060a0015196508060c0015192508060e00151915050919395979092949650565b600460009054906101000a900473ffffffffffffffffffffffffffffffffffffffff1681565b6111533385858486611b74565b50505050565b6000809054906101000a900473ffffffffffffffffffffffffffffffffffffffff1673ffffffffffffffffffffffffffffffffffffffff163373ffffffffffffffffffffffffffffffffffffffff161415156111b457600080fd5b600073ffffffffffffffffffffffffffffffffffffffff168173ffffffffffffffffffffffffffffffffffffffff16141515156111f057600080fd5b8073ffffffffffffffffffffffffffffffffffffffff166000809054906101000a900473ffffffffffffffffffffffffffffffffffffffff1673ffffffffffffffffffffffffffffffffffffffff167f8be0079c531659141344cd1fd0a4f28419497f9722a3daafe3b4186f6b6457e060405160405180910390a3806000806101000a81548173ffffffffffffffffffffffffffffffffffffffff021916908373ffffffffffffffffffffffffffffffffffffffff16021790555050565b600560009054906101000a900473ffffffffffffffffffffffffffffffffffffffff1681565b6000600160008673ffffffffffffffffffffffffffffffffffffffff1673ffffffffffffffffffffffffffffffffffffffff16815260200190815260200160002060008581526020019081526020016000209050600073ffffffffffffffffffffffffffffffffffffffff168160010160009054906101000a900473ffffffffffffffffffffffffffffffffffffffff1673ffffffffffffffffffffffffffffffffffffffff161415151561138857600080fd5b600560009054906101000a900473ffffffffffffffffffffffffffffffffffffffff1673ffffffffffffffffffffffffffffffffffffffff166323b872dd876000809054906101000a900473ffffffffffffffffffffffffffffffffffffffff16856000604051602001526040518463ffffffff167c0100000000000000000000000000000000000000000000000000000000028152600401808473ffffffffffffffffffffffffffffffffffffffff1673ffffffffffffffffffffffffffffffffffffffff1681526020018373ffffffffffffffffffffffffffffffffffffffff1673ffffffffffffffffffffffffffffffffffffffff1681526020018281526020019350505050602060405180830381600087803b15156114aa57600080fd5b6102c65a03f115156114bb57600080fd5b5050506040518051905050600560009054906101000a900473ffffffffffffffffffffffffffffffffffffffff1673ffffffffffffffffffffffffffffffffffffffff1663d73dd623600460009054906101000a900473ffffffffffffffffffffffffffffffffffffffff16846000604051602001526040518363ffffffff167c0100000000000000000000000000000000000000000000000000000000028152600401808373ffffffffffffffffffffffffffffffffffffffff1673ffffffffffffffffffffffffffffffffffffffff16815260200182815260200192505050602060405180830381600087803b15156115b557600080fd5b6102c65a03f115156115c657600080fd5b505050604051805190505082156115ee57818160060160008282540192505081905550611601565b8181600701600082825401925050819055505b806002826008015481548110151561161557fe5b90600052602060002090600902016000820160009054906101000a900473ffffffffffffffffffffffffffffffffffffffff168160000160006101000a81548173ffffffffffffffffffffffffffffffffffffffff021916908373ffffffffffffffffffffffffffffffffffffffff1602179055506001820160009054906101000a900473ffffffffffffffffffffffffffffffffffffffff168160010160006101000a81548173ffffffffffffffffffffffffffffffffffffffff021916908373ffffffffffffffffffffffffffffffffffffffff16021790555060028201816002019080546001816001161561010002031660029004611718929190612077565b506003820154816003015560048201548160040155600582015481600501556006820154816006015560078201548160070155600882015481600801559050506003805480600101828161176c91906120fe565b91600052602060002090600c020160006080604051908101604052808a73ffffffffffffffffffffffffffffffffffffffff1681526020018561012060405190810160405290816000820160009054906101000a900473ffffffffffffffffffffffffffffffffffffffff1673ffffffffffffffffffffffffffffffffffffffff1673ffffffffffffffffffffffffffffffffffffffff1681526020016001820160009054906101000a900473ffffffffffffffffffffffffffffffffffffffff1673ffffffffffffffffffffffffffffffffffffffff1673ffffffffffffffffffffffffffffffffffffffff168152602001600282018054600181600116156101000203166002900480601f0160208091040260200160405190810160405280929190818152602001828054600181600116156101000203166002900480156118f75780601f106118cc576101008083540402835291602001916118f7565b820191906000526020600020905b8154815290600101906020018083116118da57829003601f168201915b5050505050815260200160038201548152602001600482015481526020016005820154815260200160068201548152602001600782015481526020016008820154815250508152602001871515815260200186815250909190915060008201518160000160006101000a81548173ffffffffffffffffffffffffffffffffffffffff021916908373ffffffffffffffffffffffffffffffffffffffff16021790555060208201518160010160008201518160000160006101000a81548173ffffffffffffffffffffffffffffffffffffffff021916908373ffffffffffffffffffffffffffffffffffffffff16021790555060208201518160010160006101000a81548173ffffffffffffffffffffffffffffffffffffffff021916908373ffffffffffffffffffffffffffffffffffffffff1602179055506040820151816002019080519060200190611a4c929190612130565b50606082015181600301556080820151816004015560a0820151816005015560c0820151816006015560e0820151816007015561010082015181600801555050604082015181600a0160006101000a81548160ff021916908315150217905550606082015181600b01555050507fba46d2d4a58f2731a88b82c14eff14cb9cb20c392748d471b1b9c7e56993b1cb8686868686604051808673ffffffffffffffffffffffffffffffffffffffff1673ffffffffffffffffffffffffffffffffffffffff1681526020018573ffffffffffffffffffffffffffffffffffffffff1673ffffffffffffffffffffffffffffffffffffffff168152602001848152602001831515151581526020018281526020019550505050505060405180910390a1505050505050565b6000611b7e611ff8565b600073ffffffffffffffffffffffffffffffffffffffff16600160008973ffffffffffffffffffffffffffffffffffffffff1673ffffffffffffffffffffffffffffffffffffffff168152602001908152602001600020600085815260200190815260200160002060010160009054906101000a900473ffffffffffffffffffffffffffffffffffffffff1673ffffffffffffffffffffffffffffffffffffffff16141515611c2c57600080fd5b8342019150610120604051908101604052808873ffffffffffffffffffffffffffffffffffffffff1681526020018773ffffffffffffffffffffffffffffffffffffffff1681526020018681526020014281526020018381526020018481526020016000815260200160008152602001600280549050815250905080600160008973ffffffffffffffffffffffffffffffffffffffff1673ffffffffffffffffffffffffffffffffffffffff168152602001908152602001600020600085815260200190815260200160002060008201518160000160006101000a81548173ffffffffffffffffffffffffffffffffffffffff021916908373ffffffffffffffffffffffffffffffffffffffff16021790555060208201518160010160006101000a81548173ffffffffffffffffffffffffffffffffffffffff021916908373ffffffffffffffffffffffffffffffffffffffff1602179055506040820151816002019080519060200190611da2929190612130565b50606082015181600301556080820151816004015560a0820151816005015560c0820151816006015560e08201518160070155610100820151816008015590505060028054806001018281611df791906121b0565b9160005260206000209060090201600083909190915060008201518160000160006101000a81548173ffffffffffffffffffffffffffffffffffffffff021916908373ffffffffffffffffffffffffffffffffffffffff16021790555060208201518160010160006101000a81548173ffffffffffffffffffffffffffffffffffffffff021916908373ffffffffffffffffffffffffffffffffffffffff1602179055506040820151816002019080519060200190611eb7929190612130565b50606082015181600301556080820151816004015560a0820151816005015560c0820151816006015560e0820151816007015561010082015181600801555050507f18df45e636fa14253c9e95f3460974a7e1fd3331c188e033e0e567078ceb44618787428787604051808673ffffffffffffffffffffffffffffffffffffffff1673ffffffffffffffffffffffffffffffffffffffff1681526020018573ffffffffffffffffffffffffffffffffffffffff1673ffffffffffffffffffffffffffffffffffffffff1681526020018481526020018381526020018281526020019550505050505060405180910390a150505050505050565b61018060405190810160405280600073ffffffffffffffffffffffffffffffffffffffff168152602001611fe26121e2565b8152602001600015158152602001600081525090565b61012060405190810160405280600073ffffffffffffffffffffffffffffffffffffffff168152602001600073ffffffffffffffffffffffffffffffffffffffff168152602001612047612261565b81526020016000815260200160008152602001600081526020016000815260200160008152602001600081525090565b828054600181600116156101000203166002900490600052602060002090601f016020900481019282601f106120b057805485556120ed565b828001600101855582156120ed57600052602060002091601f016020900482015b828111156120ec5782548255916001019190600101906120d1565b5b5090506120fa9190612275565b5090565b81548183558181151161212b57600c0281600c02836000526020600020918201910161212a919061229a565b5b505050565b828054600181600116156101000203166002900490600052602060002090601f016020900481019282601f1061217157805160ff191683800117855561219f565b8280016001018555821561219f579182015b8281111561219e578251825591602001919060010190612183565b5b5090506121ac9190612275565b5090565b8154818355818115116121dd576009028160090283600052602060002091820191016121dc9190612391565b5b505050565b61012060405190810160405280600073ffffffffffffffffffffffffffffffffffffffff168152602001600073ffffffffffffffffffffffffffffffffffffffff168152602001612231612261565b81526020016000815260200160008152602001600081526020016000815260200160008152602001600081525090565b602060405190810160405280600081525090565b61229791905b8082111561229357600081600090555060010161227b565b5090565b90565b61238e91905b8082111561238a57600080820160006101000a81549073ffffffffffffffffffffffffffffffffffffffff021916905560018201600080820160006101000a81549073ffffffffffffffffffffffffffffffffffffffff02191690556001820160006101000a81549073ffffffffffffffffffffffffffffffffffffffff0219169055600282016000612333919061243e565b6003820160009055600482016000905560058201600090556006820160009055600782016000905560088201600090555050600a820160006101000a81549060ff0219169055600b82016000905550600c016122a0565b5090565b90565b61243b91905b8082111561243757600080820160006101000a81549073ffffffffffffffffffffffffffffffffffffffff02191690556001820160006101000a81549073ffffffffffffffffffffffffffffffffffffffff02191690556002820160006123fe919061243e565b60038201600090556004820160009055600582016000905560068201600090556007820160009055600882016000905550600901612397565b5090565b90565b50805460018160011615610100020316600290046000825580601f106124645750612483565b601f0160209004906000526020600020908101906124829190612275565b5b505600a165627a7a72305820f3c0d6d676fb360ba67b36f37ebd986271713359fd02085bf56b416acef66bb40029",
  "source": "pragma solidity ^0.4.18;\n\nimport \"zeppelin-solidity/contracts/ownership/Ownable.sol\";\n\nimport \"./DeCertCrowdsale.sol\";\nimport \"./CertToken.sol\";\n\ncontract DeCert is Ownable {\n\n    /*\n     *  Storage\n     */\n    struct Certificate {\n        // who issued the certificate\n        address issuer;\n\n        // who requested the certificate\n        address owner;\n\n        // what are you requesting the certificate for\n        string domain;\n\n        // when does the certificate become valid\n        uint256 validityStart;\n\n        // when is the certificate no longer valid\n        uint256 validityEnd;\n\n        // unique identifier for the certificate for the CA\n        uint256 serialID;\n\n        // how many people think that the certificate is valid\n        uint256 validVotes;\n\n        // how many people think the certificate is invalid\n        uint256 invalidVotes;\n\n        // what is the ID of the Cert in the list?\n        uint listID;\n    }\n\n    // @dev mapping storing the certificates on chain\n    mapping (address => mapping (uint => Certificate)) public certificateMap;\n\n    // @dev store all of the certificates owned by a certain person\n    Certificate[] certList;\n\n    struct Vote {\n        // who voted\n        address voter;\n\n        // what did they vote on\n        Certificate cert;\n\n        // is it valid or not\n        bool valid;\n\n        // how many votes\n        uint256 votes;\n    }\n\n    // @dev store all of the votes that have been made\n    Vote[] votesList;\n\n    // @dev crowdsale creating tokens\n    DeCertCrowdsale public crowdsale;\n\n    // @dev voting token\n    CertToken public token;\n\n    /* \n     *  Events\n     */\n    event CertificateAdded(\n        address issuer,\n        address owner,\n        uint256 validityStart,\n        uint256 validityEnd,\n        uint256 serialID\n    );\n\n    event NewVote(\n        address voter,\n        address issuer,\n        uint256 serialID,\n        bool valid,\n        uint256 votes\n    );\n\n    event A(string debug);\n\n    /*\n     *  Public Functions\n     */\n\n    /// @dev Set the contract for the associated token\n    /// @param _tokenAddress Address for the associated token\n    function setToken(\n        address _tokenAddress\n    )\n        public\n        onlyOwner\n    {\n        token = CertToken(_tokenAddress);\n    }\n\n    /// @dev Set the contract for the associated crowdsale. Must be called\n    // after the token is set\n    /// @param _crowdsaleAddress Address for the associated crowdsale\n    function setCrowdsale(\n        address _crowdsaleAddress\n    )\n        public\n        onlyOwner\n    {\n        crowdsale = DeCertCrowdsale(_crowdsaleAddress);\n        token.approve(_crowdsaleAddress, token.totalCirculation());\n    }\n\n    /// @dev Add a certificate to the chain\n    /// @param _owner who owns the cert\n    /// @param _duration how long is the cert valid for\n    /// @param _serialID unique ID for the cert based on owner\n    function addCertificate(\n        address _owner,\n        string _domain,\n        uint256 _serialID,\n        uint256 _duration\n    )\n        public\n    {\n        _addCertificate(\n            msg.sender,\n            _owner,\n            _domain,\n            _duration,\n            _serialID\n        );\n    }\n\n    function _addCertificate(\n        address _issuer,\n        address _owner,\n        string _domain,\n        uint256 _duration,\n        uint256 _serialID\n    )\n        internal\n    {\n        // ensure that the certificate wasn't already created\n        require (certificateMap[_issuer][_serialID].owner == address(0));\n\n        // calculate the certificate expiration\n        uint256 expire = now + _duration;\n\n        // create the certificate\n        Certificate memory cert = Certificate(\n            _issuer,\n            _owner,\n            _domain,\n            now,\n            expire,\n            _serialID,\n            0,\n            0,\n            certList.length\n        );\n\n        // store the certificate\n        certificateMap[_issuer][_serialID] = cert;\n        certList.push(cert);\n\n        CertificateAdded(_issuer, _owner, now, _duration, _serialID);\n    }\n\n    /// @dev Vote on whether or not a particular certificate is valid\n    /// @param _issuer who issued the certificate\n    /// @param _serialID what is the ID of the certificate\n    /// @param _valid is the cert valid or not\n    /// @param _votes how many votes to spend\n    function voteOnCert(\n        address _issuer,\n        uint256 _serialID,\n        bool _valid,\n        uint256 _votes\n    )\n        public\n    {\n        _voteOnCert(\n            msg.sender,\n            _issuer,\n            _serialID,\n            _valid,\n            _votes\n        );\n    }\n\n    function _voteOnCert(\n        address _voter,\n        address _issuer,\n        uint256 _serialID,\n        bool _valid,\n        uint256 _votes\n    )\n        internal\n    {\n        Certificate storage cert = certificateMap[_issuer][_serialID];\n\n        // require that it is a valid cert to prevent wasting tokens\n        require(cert.owner != address(0));\n\n        // transfer tokens to the owner of the contract\n        token.transferFrom(_voter, owner, _votes);\n\n        // increase the approval of the crowdsale to spend the\n        // money in this contract\n        token.increaseApproval(crowdsale, _votes);\n\n        // add the votes to the struct\n        if (_valid) {\n            cert.validVotes += _votes;\n        } else {\n            cert.invalidVotes += _votes;\n        }\n\n        // update in our list as well\n        certList[cert.listID] = cert;\n\n        // store the vote and emit an event\n        votesList.push(Vote(\n            _voter,\n            cert,\n            _valid,\n            _votes\n        ));\n        NewVote(_voter, _issuer, _serialID, _valid, _votes);\n    }\n\n    /// @dev Read properties of a cert from the chain\n    function getCertificate(\n        address _issuer,\n        uint256 _serialID\n    )\n        public\n        view\n        returns (\n            address issuer,\n            uint256 serialID,\n            address owner,\n            uint256 validityStart,\n            uint256 validityEnd,\n            uint256 validVotes,\n            uint256 invalidVotes\n        )\n    {\n        Certificate memory cert = certificateMap[_issuer][_serialID];\n        owner = cert.owner;\n        issuer = cert.issuer;\n        validityStart = cert.validityStart;\n        validityEnd = cert.validityEnd;\n        serialID = cert.serialID;\n        validVotes = cert.validVotes;\n        invalidVotes = cert.invalidVotes;\n    }\n\n    function getCertificateByID(\n        uint _certID\n    )\n        public\n        view\n        returns (\n            address issuer,\n            uint256 serialID,\n            address owner,\n            uint256 validityStart,\n            uint256 validityEnd,\n            uint256 validVotes,\n            uint256 invalidVotes\n        )\n    {\n        Certificate memory cert = certList[_certID];\n        owner = cert.owner;\n        issuer = cert.issuer;\n        validityStart = cert.validityStart;\n        validityEnd = cert.validityEnd;\n        serialID = cert.serialID;\n        validVotes = cert.validVotes;\n        invalidVotes = cert.invalidVotes;\n    }\n\n    function getVote(\n        uint _voteID\n    )\n        public\n        view\n        returns(\n            address voter,\n            uint listID,\n            bool valid,\n            uint256 votes\n        )\n    {\n        Vote memory vote = votesList[_voteID];\n\n        voter = vote.voter;\n        listID = vote.cert.listID;\n        valid = vote.valid;\n        votes = vote.votes;\n    }\n}\n",
  "sourcePath": "/Users/leohentschker/decert/contracts/DeCert.sol",
  "compiler": {
    "name": "solc",
    "version": "0.4.18+commit.9cf6e910.Emscripten.clang"
  },
  "schemaVersion": "1.0.1",
  "updatedAt": "2018-05-01T13:19:07.456Z"
}