{
  "contractName": "DeCert",
  "abi": [
    {
      "constant": false,
      "inputs": [
        {
          "name": "_tokenAddress",
          "type": "address"
        }
      ],
      "name": "setToken",
      "outputs": [],
      "payable": false,
      "stateMutability": "nonpayable",
      "type": "function"
    },
    {
      "constant": true,
      "inputs": [
        {
          "name": "",
          "type": "address"
        },
        {
          "name": "",
          "type": "uint256"
        }
      ],
      "name": "certificateMap",
      "outputs": [
        {
          "name": "issuer",
          "type": "address"
        },
        {
          "name": "domain",
          "type": "string"
        },
        {
          "name": "validityStart",
          "type": "uint256"
        },
        {
          "name": "validityEnd",
          "type": "uint256"
        },
        {
          "name": "serialID",
          "type": "uint256"
        },
        {
          "name": "validVotes",
          "type": "uint256"
        },
        {
          "name": "invalidVotes",
          "type": "uint256"
        },
        {
          "name": "listID",
          "type": "uint256"
        }
      ],
      "payable": false,
      "stateMutability": "view",
      "type": "function"
    },
    {
      "constant": false,
      "inputs": [
        {
          "name": "_crowdsaleAddress",
          "type": "address"
        }
      ],
      "name": "setCrowdsale",
      "outputs": [],
      "payable": false,
      "stateMutability": "nonpayable",
      "type": "function"
    },
    {
      "constant": true,
      "inputs": [
        {
          "name": "_voteID",
          "type": "uint256"
        }
      ],
      "name": "getVote",
      "outputs": [
        {
          "name": "voter",
          "type": "address"
        },
        {
          "name": "listID",
          "type": "uint256"
        },
        {
          "name": "valid",
          "type": "bool"
        },
        {
          "name": "votes",
          "type": "uint256"
        }
      ],
      "payable": false,
      "stateMutability": "view",
      "type": "function"
    },
    {
      "constant": true,
      "inputs": [
        {
          "name": "_issuer",
          "type": "address"
        },
        {
          "name": "_serialID",
          "type": "uint256"
        }
      ],
      "name": "getCertificate",
      "outputs": [
        {
          "name": "issuer",
          "type": "address"
        },
        {
          "name": "serialID",
          "type": "uint256"
        },
        {
          "name": "validityStart",
          "type": "uint256"
        },
        {
          "name": "validityEnd",
          "type": "uint256"
        },
        {
          "name": "validVotes",
          "type": "uint256"
        },
        {
          "name": "invalidVotes",
          "type": "uint256"
        }
      ],
      "payable": false,
      "stateMutability": "view",
      "type": "function"
    },
    {
      "constant": true,
      "inputs": [],
      "name": "owner",
      "outputs": [
        {
          "name": "",
          "type": "address"
        }
      ],
      "payable": false,
      "stateMutability": "view",
      "type": "function"
    },
    {
      "constant": false,
      "inputs": [
        {
          "name": "_issuer",
          "type": "address"
        },
        {
          "name": "_serialID",
          "type": "uint256"
        },
        {
          "name": "_valid",
          "type": "bool"
        },
        {
          "name": "_votes",
          "type": "uint256"
        }
      ],
      "name": "voteOnCert",
      "outputs": [],
      "payable": false,
      "stateMutability": "nonpayable",
      "type": "function"
    },
    {
      "constant": true,
      "inputs": [
        {
          "name": "_certID",
          "type": "uint256"
        }
      ],
      "name": "getCertificateByID",
      "outputs": [
        {
          "name": "issuer",
          "type": "address"
        },
        {
          "name": "serialID",
          "type": "uint256"
        },
        {
          "name": "validityStart",
          "type": "uint256"
        },
        {
          "name": "validityEnd",
          "type": "uint256"
        },
        {
          "name": "validVotes",
          "type": "uint256"
        },
        {
          "name": "invalidVotes",
          "type": "uint256"
        }
      ],
      "payable": false,
      "stateMutability": "view",
      "type": "function"
    },
    {
      "constant": true,
      "inputs": [],
      "name": "crowdsale",
      "outputs": [
        {
          "name": "",
          "type": "address"
        }
      ],
      "payable": false,
      "stateMutability": "view",
      "type": "function"
    },
    {
      "constant": false,
      "inputs": [
        {
          "name": "_domain",
          "type": "string"
        },
        {
          "name": "_serialID",
          "type": "uint256"
        },
        {
          "name": "_duration",
          "type": "uint256"
        }
      ],
      "name": "addCertificate",
      "outputs": [],
      "payable": false,
      "stateMutability": "nonpayable",
      "type": "function"
    },
    {
      "constant": false,
      "inputs": [
        {
          "name": "newOwner",
          "type": "address"
        }
      ],
      "name": "transferOwnership",
      "outputs": [],
      "payable": false,
      "stateMutability": "nonpayable",
      "type": "function"
    },
    {
      "constant": true,
      "inputs": [],
      "name": "token",
      "outputs": [
        {
          "name": "",
          "type": "address"
        }
      ],
      "payable": false,
      "stateMutability": "view",
      "type": "function"
    },
    {
      "anonymous": false,
      "inputs": [
        {
          "indexed": false,
          "name": "issuer",
          "type": "address"
        },
        {
          "indexed": false,
          "name": "validityStart",
          "type": "uint256"
        },
        {
          "indexed": false,
          "name": "validityEnd",
          "type": "uint256"
        },
        {
          "indexed": false,
          "name": "serialID",
          "type": "uint256"
        }
      ],
      "name": "CertificateAdded",
      "type": "event"
    },
    {
      "anonymous": false,
      "inputs": [
        {
          "indexed": false,
          "name": "voter",
          "type": "address"
        },
        {
          "indexed": false,
          "name": "issuer",
          "type": "address"
        },
        {
          "indexed": false,
          "name": "serialID",
          "type": "uint256"
        },
        {
          "indexed": false,
          "name": "valid",
          "type": "bool"
        },
        {
          "indexed": false,
          "name": "votes",
          "type": "uint256"
        }
      ],
      "name": "NewVote",
      "type": "event"
    },
    {
      "anonymous": false,
      "inputs": [
        {
          "indexed": false,
          "name": "debug",
          "type": "string"
        }
      ],
      "name": "A",
      "type": "event"
    },
    {
      "anonymous": false,
      "inputs": [
        {
          "indexed": true,
          "name": "previousOwner",
          "type": "address"
        },
        {
          "indexed": true,
          "name": "newOwner",
          "type": "address"
        }
      ],
      "name": "OwnershipTransferred",
      "type": "event"
    }
  ],
  "bytecode": "0x6060604052336000806101000a81548173ffffffffffffffffffffffffffffffffffffffff021916908373ffffffffffffffffffffffffffffffffffffffff16021790555061202a806100536000396000f3006060604052600436106100ba576000357c0100000000000000000000000000000000000000000000000000000000900463ffffffff168063144fa6d7146100bf578063445e5470146100f8578063483a20b21461022d5780635a55c1f014610266578063817bb331146102e25780638da5cb5b14610387578063996decdd146103dc5780639aa40771146104325780639c1e03a0146104b8578063dc2ed5641461050d578063f2fde38b1461057c578063fc0c546a146105b5575b600080fd5b34156100ca57600080fd5b6100f6600480803573ffffffffffffffffffffffffffffffffffffffff1690602001909190505061060a565b005b341561010357600080fd5b610138600480803573ffffffffffffffffffffffffffffffffffffffff169060200190919080359060200190919050506106a9565b604051808973ffffffffffffffffffffffffffffffffffffffff1673ffffffffffffffffffffffffffffffffffffffff168152602001806020018881526020018781526020018681526020018581526020018481526020018381526020018281038252898181546001816001161561010002031660029004815260200191508054600181600116156101000203166002900480156102175780601f106101ec57610100808354040283529160200191610217565b820191906000526020600020905b8154815290600101906020018083116101fa57829003601f168201915b5050995050505050505050505060405180910390f35b341561023857600080fd5b610264600480803573ffffffffffffffffffffffffffffffffffffffff1690602001909190505061071d565b005b341561027157600080fd5b610287600480803590602001909190505061094d565b604051808573ffffffffffffffffffffffffffffffffffffffff1673ffffffffffffffffffffffffffffffffffffffff1681526020018481526020018315151515815260200182815260200194505050505060405180910390f35b34156102ed57600080fd5b610322600480803573ffffffffffffffffffffffffffffffffffffffff16906020019091908035906020019091905050610b73565b604051808773ffffffffffffffffffffffffffffffffffffffff1673ffffffffffffffffffffffffffffffffffffffff168152602001868152602001858152602001848152602001838152602001828152602001965050505050505060405180910390f35b341561039257600080fd5b61039a610d4c565b604051808273ffffffffffffffffffffffffffffffffffffffff1673ffffffffffffffffffffffffffffffffffffffff16815260200191505060405180910390f35b34156103e757600080fd5b610430600480803573ffffffffffffffffffffffffffffffffffffffff169060200190919080359060200190919080351515906020019091908035906020019091905050610d71565b005b341561043d57600080fd5b6104536004808035906020019091905050610d84565b604051808773ffffffffffffffffffffffffffffffffffffffff1673ffffffffffffffffffffffffffffffffffffffff168152602001868152602001858152602001848152602001838152602001828152602001965050505050505060405180910390f35b34156104c357600080fd5b6104cb610f29565b604051808273ffffffffffffffffffffffffffffffffffffffff1673ffffffffffffffffffffffffffffffffffffffff16815260200191505060405180910390f35b341561051857600080fd5b61057a600480803590602001908201803590602001908080601f01602080910402602001604051908101604052809392919081815260200183838082843782019150505050505091908035906020019091908035906020019091905050610f4f565b005b341561058757600080fd5b6105b3600480803573ffffffffffffffffffffffffffffffffffffffff16906020019091905050610f60565b005b34156105c057600080fd5b6105c86110b5565b604051808273ffffffffffffffffffffffffffffffffffffffff1673ffffffffffffffffffffffffffffffffffffffff16815260200191505060405180910390f35b6000809054906101000a900473ffffffffffffffffffffffffffffffffffffffff1673ffffffffffffffffffffffffffffffffffffffff163373ffffffffffffffffffffffffffffffffffffffff1614151561066557600080fd5b80600560006101000a81548173ffffffffffffffffffffffffffffffffffffffff021916908373ffffffffffffffffffffffffffffffffffffffff16021790555050565b6001602052816000526040600020602052806000526040600020600091509150508060000160009054906101000a900473ffffffffffffffffffffffffffffffffffffffff169080600101908060020154908060030154908060040154908060050154908060060154908060070154905088565b6000809054906101000a900473ffffffffffffffffffffffffffffffffffffffff1673ffffffffffffffffffffffffffffffffffffffff163373ffffffffffffffffffffffffffffffffffffffff1614151561077857600080fd5b80600460006101000a81548173ffffffffffffffffffffffffffffffffffffffff021916908373ffffffffffffffffffffffffffffffffffffffff160217905550600560009054906101000a900473ffffffffffffffffffffffffffffffffffffffff1673ffffffffffffffffffffffffffffffffffffffff1663095ea7b382600560009054906101000a900473ffffffffffffffffffffffffffffffffffffffff1673ffffffffffffffffffffffffffffffffffffffff16635dcf8d2b6000604051602001526040518163ffffffff167c0100000000000000000000000000000000000000000000000000000000028152600401602060405180830381600087803b151561088657600080fd5b6102c65a03f1151561089757600080fd5b505050604051805190506000604051602001526040518363ffffffff167c0100000000000000000000000000000000000000000000000000000000028152600401808373ffffffffffffffffffffffffffffffffffffffff1673ffffffffffffffffffffffffffffffffffffffff16815260200182815260200192505050602060405180830381600087803b151561092e57600080fd5b6102c65a03f1151561093f57600080fd5b505050604051805190505050565b60008060008061095b611bb0565b60038681548110151561096a57fe5b90600052602060002090600b0201608060405190810160405290816000820160009054906101000a900473ffffffffffffffffffffffffffffffffffffffff1673ffffffffffffffffffffffffffffffffffffffff1673ffffffffffffffffffffffffffffffffffffffff1681526020016001820161010060405190810160405290816000820160009054906101000a900473ffffffffffffffffffffffffffffffffffffffff1673ffffffffffffffffffffffffffffffffffffffff1673ffffffffffffffffffffffffffffffffffffffff168152602001600182018054600181600116156101000203166002900480601f016020809104026020016040519081016040528092919081815260200182805460018160011615610100020316600290048015610adb5780601f10610ab057610100808354040283529160200191610adb565b820191906000526020600020905b815481529060010190602001808311610abe57829003601f168201915b50505050508152602001600282015481526020016003820154815260200160048201548152602001600582015481526020016006820154815260200160078201548152505081526020016009820160009054906101000a900460ff16151515158152602001600a82015481525050905080600001519450806020015160e0015193508060400151925080606001519150509193509193565b600080600080600080610b84611bf8565b600160008a73ffffffffffffffffffffffffffffffffffffffff1673ffffffffffffffffffffffffffffffffffffffff168152602001908152602001600020600089815260200190815260200160002061010060405190810160405290816000820160009054906101000a900473ffffffffffffffffffffffffffffffffffffffff1673ffffffffffffffffffffffffffffffffffffffff1673ffffffffffffffffffffffffffffffffffffffff168152602001600182018054600181600116156101000203166002900480601f016020809104026020016040519081016040528092919081815260200182805460018160011615610100020316600290048015610cd05780601f10610ca557610100808354040283529160200191610cd0565b820191906000526020600020905b815481529060010190602001808311610cb357829003601f168201915b5050505050815260200160028201548152602001600382015481526020016004820154815260200160058201548152602001600682015481526020016007820154815250509050806000015196508060400151945080606001519350806080015195508060a0015192508060c001519150509295509295509295565b6000809054906101000a900473ffffffffffffffffffffffffffffffffffffffff1681565b610d7e33858585856110db565b50505050565b600080600080600080610d95611bf8565b600288815481101515610da457fe5b906000526020600020906008020161010060405190810160405290816000820160009054906101000a900473ffffffffffffffffffffffffffffffffffffffff1673ffffffffffffffffffffffffffffffffffffffff1673ffffffffffffffffffffffffffffffffffffffff168152602001600182018054600181600116156101000203166002900480601f016020809104026020016040519081016040528092919081815260200182805460018160011615610100020316600290048015610eae5780601f10610e8357610100808354040283529160200191610eae565b820191906000526020600020905b815481529060010190602001808311610e9157829003601f168201915b5050505050815260200160028201548152602001600382015481526020016004820154815260200160058201548152602001600682015481526020016007820154815250509050806000015196508060400151945080606001519350806080015195508060a0015192508060c0015191505091939550919395565b600460009054906101000a900473ffffffffffffffffffffffffffffffffffffffff1681565b610f5b33848385611855565b505050565b6000809054906101000a900473ffffffffffffffffffffffffffffffffffffffff1673ffffffffffffffffffffffffffffffffffffffff163373ffffffffffffffffffffffffffffffffffffffff16141515610fbb57600080fd5b600073ffffffffffffffffffffffffffffffffffffffff168173ffffffffffffffffffffffffffffffffffffffff1614151515610ff757600080fd5b8073ffffffffffffffffffffffffffffffffffffffff166000809054906101000a900473ffffffffffffffffffffffffffffffffffffffff1673ffffffffffffffffffffffffffffffffffffffff167f8be0079c531659141344cd1fd0a4f28419497f9722a3daafe3b4186f6b6457e060405160405180910390a3806000806101000a81548173ffffffffffffffffffffffffffffffffffffffff021916908373ffffffffffffffffffffffffffffffffffffffff16021790555050565b600560009054906101000a900473ffffffffffffffffffffffffffffffffffffffff1681565b6000600160008673ffffffffffffffffffffffffffffffffffffffff1673ffffffffffffffffffffffffffffffffffffffff16815260200190815260200160002060008581526020019081526020016000209050600073ffffffffffffffffffffffffffffffffffffffff168160000160009054906101000a900473ffffffffffffffffffffffffffffffffffffffff1673ffffffffffffffffffffffffffffffffffffffff161415151561118f57600080fd5b600560009054906101000a900473ffffffffffffffffffffffffffffffffffffffff1673ffffffffffffffffffffffffffffffffffffffff166323b872dd8730856000604051602001526040518463ffffffff167c0100000000000000000000000000000000000000000000000000000000028152600401808473ffffffffffffffffffffffffffffffffffffffff1673ffffffffffffffffffffffffffffffffffffffff1681526020018373ffffffffffffffffffffffffffffffffffffffff1673ffffffffffffffffffffffffffffffffffffffff1681526020018281526020019350505050602060405180830381600087803b151561129057600080fd5b6102c65a03f115156112a157600080fd5b5050506040518051905050600560009054906101000a900473ffffffffffffffffffffffffffffffffffffffff1673ffffffffffffffffffffffffffffffffffffffff1663d73dd623600460009054906101000a900473ffffffffffffffffffffffffffffffffffffffff16846000604051602001526040518363ffffffff167c0100000000000000000000000000000000000000000000000000000000028152600401808373ffffffffffffffffffffffffffffffffffffffff1673ffffffffffffffffffffffffffffffffffffffff16815260200182815260200192505050602060405180830381600087803b151561139b57600080fd5b6102c65a03f115156113ac57600080fd5b505050604051805190505082156113d4578181600501600082825401925050819055506113e7565b8181600601600082825401925050819055505b80600282600701548154811015156113fb57fe5b90600052602060002090600802016000820160009054906101000a900473ffffffffffffffffffffffffffffffffffffffff168160000160006101000a81548173ffffffffffffffffffffffffffffffffffffffff021916908373ffffffffffffffffffffffffffffffffffffffff16021790555060018201816001019080546001816001161561010002031660029004611497929190611c5a565b50600282015481600201556003820154816003015560048201548160040155600582015481600501556006820154816006015560078201548160070155905050600380548060010182816114eb9190611ce1565b91600052602060002090600b020160006080604051908101604052808a73ffffffffffffffffffffffffffffffffffffffff1681526020018561010060405190810160405290816000820160009054906101000a900473ffffffffffffffffffffffffffffffffffffffff1673ffffffffffffffffffffffffffffffffffffffff1673ffffffffffffffffffffffffffffffffffffffff168152602001600182018054600181600116156101000203166002900480601f0160208091040260200160405190810160405280929190818152602001828054600181600116156101000203166002900480156116205780601f106115f557610100808354040283529160200191611620565b820191906000526020600020905b81548152906001019060200180831161160357829003601f168201915b5050505050815260200160028201548152602001600382015481526020016004820154815260200160058201548152602001600682015481526020016007820154815250508152602001871515815260200186815250909190915060008201518160000160006101000a81548173ffffffffffffffffffffffffffffffffffffffff021916908373ffffffffffffffffffffffffffffffffffffffff16021790555060208201518160010160008201518160000160006101000a81548173ffffffffffffffffffffffffffffffffffffffff021916908373ffffffffffffffffffffffffffffffffffffffff160217905550602082015181600101908051906020019061172e929190611d13565b5060408201518160020155606082015181600301556080820151816004015560a0820151816005015560c0820151816006015560e08201518160070155505060408201518160090160006101000a81548160ff021916908315150217905550606082015181600a01555050507fba46d2d4a58f2731a88b82c14eff14cb9cb20c392748d471b1b9c7e56993b1cb8686868686604051808673ffffffffffffffffffffffffffffffffffffffff1673ffffffffffffffffffffffffffffffffffffffff1681526020018573ffffffffffffffffffffffffffffffffffffffff1673ffffffffffffffffffffffffffffffffffffffff168152602001848152602001831515151581526020018281526020019550505050505060405180910390a1505050505050565b600061185f611bf8565b600073ffffffffffffffffffffffffffffffffffffffff16600160008873ffffffffffffffffffffffffffffffffffffffff1673ffffffffffffffffffffffffffffffffffffffff168152602001908152602001600020600085815260200190815260200160002060000160009054906101000a900473ffffffffffffffffffffffffffffffffffffffff1673ffffffffffffffffffffffffffffffffffffffff1614151561190d57600080fd5b8342019150610100604051908101604052808773ffffffffffffffffffffffffffffffffffffffff1681526020018681526020014281526020018381526020018481526020016000815260200160008152602001600280549050815250905080600160008873ffffffffffffffffffffffffffffffffffffffff1673ffffffffffffffffffffffffffffffffffffffff168152602001908152602001600020600085815260200190815260200160002060008201518160000160006101000a81548173ffffffffffffffffffffffffffffffffffffffff021916908373ffffffffffffffffffffffffffffffffffffffff1602179055506020820151816001019080519060200190611a20929190611d13565b5060408201518160020155606082015181600301556080820151816004015560a0820151816005015560c0820151816006015560e0820151816007015590505060028054806001018281611a749190611d93565b9160005260206000209060080201600083909190915060008201518160000160006101000a81548173ffffffffffffffffffffffffffffffffffffffff021916908373ffffffffffffffffffffffffffffffffffffffff1602179055506020820151816001019080519060200190611aed929190611d13565b5060408201518160020155606082015181600301556080820151816004015560a0820151816005015560c0820151816006015560e082015181600701555050507f944947cdd5d42fdc8afac2fbc47fb5f7251d7b8d279a41d8141e2c46a61b47c886428686604051808573ffffffffffffffffffffffffffffffffffffffff1673ffffffffffffffffffffffffffffffffffffffff16815260200184815260200183815260200182815260200194505050505060405180910390a1505050505050565b61016060405190810160405280600073ffffffffffffffffffffffffffffffffffffffff168152602001611be2611dc5565b8152602001600015158152602001600081525090565b61010060405190810160405280600073ffffffffffffffffffffffffffffffffffffffff168152602001611c2a611e27565b81526020016000815260200160008152602001600081526020016000815260200160008152602001600081525090565b828054600181600116156101000203166002900490600052602060002090601f016020900481019282601f10611c935780548555611cd0565b82800160010185558215611cd057600052602060002091601f016020900482015b82811115611ccf578254825591600101919060010190611cb4565b5b509050611cdd9190611e3b565b5090565b815481835581811511611d0e57600b0281600b028360005260206000209182019101611d0d9190611e60565b5b505050565b828054600181600116156101000203166002900490600052602060002090601f016020900481019282601f10611d5457805160ff1916838001178555611d82565b82800160010185558215611d82579182015b82811115611d81578251825591602001919060010190611d66565b5b509050611d8f9190611e3b565b5090565b815481835581811511611dc057600802816008028360005260206000209182019101611dbf9190611f30565b5b505050565b61010060405190810160405280600073ffffffffffffffffffffffffffffffffffffffff168152602001611df7611e27565b81526020016000815260200160008152602001600081526020016000815260200160008152602001600081525090565b602060405190810160405280600081525090565b611e5d91905b80821115611e59576000816000905550600101611e41565b5090565b90565b611f2d91905b80821115611f2957600080820160006101000a81549073ffffffffffffffffffffffffffffffffffffffff021916905560018201600080820160006101000a81549073ffffffffffffffffffffffffffffffffffffffff0219169055600182016000611ed29190611fb6565b60028201600090556003820160009055600482016000905560058201600090556006820160009055600782016000905550506009820160006101000a81549060ff0219169055600a82016000905550600b01611e66565b5090565b90565b611fb391905b80821115611faf57600080820160006101000a81549073ffffffffffffffffffffffffffffffffffffffff0219169055600182016000611f769190611fb6565b60028201600090556003820160009055600482016000905560058201600090556006820160009055600782016000905550600801611f36565b5090565b90565b50805460018160011615610100020316600290046000825580601f10611fdc5750611ffb565b601f016020900490600052602060002090810190611ffa9190611e3b565b5b505600a165627a7a72305820b74019e0e6e92e91a105f6d39164a986ae1efef133cff67b6101f704e04a33550029",
  "source": "pragma solidity ^0.4.18;\n\nimport \"zeppelin-solidity/contracts/ownership/Ownable.sol\";\n\nimport \"./DeCertCrowdsale.sol\";\nimport \"./CertToken.sol\";\n\ncontract DeCert is Ownable {\n\n    /*\n     *  Storage\n     */\n    struct Certificate {\n        // who issued the certificate\n        address issuer;\n\n        // what are you requesting the certificate for\n        string domain;\n\n        // when does the certificate become valid\n        uint256 validityStart;\n\n        // when is the certificate no longer valid\n        uint256 validityEnd;\n\n        // unique identifier for the certificate for the CA\n        uint256 serialID;\n\n        // how many people think that the certificate is valid\n        uint256 validVotes;\n\n        // how many people think the certificate is invalid\n        uint256 invalidVotes;\n\n        // what is the ID of the Cert in the list?\n        uint listID;\n    }\n\n    // @dev mapping storing the certificates on chain\n    mapping (address => mapping (uint => Certificate)) public certificateMap;\n\n    // @dev store all of the certificates owned by a certain person\n    Certificate[] certList;\n\n    struct Vote {\n        // who voted\n        address voter;\n\n        // what did they vote on\n        Certificate cert;\n\n        // is it valid or not\n        bool valid;\n\n        // how many votes\n        uint256 votes;\n    }\n\n    // @dev store all of the votes that have been made\n    Vote[] votesList;\n\n    // @dev crowdsale creating tokens\n    DeCertCrowdsale public crowdsale;\n\n    // @dev voting token\n    CertToken public token;\n\n    /* \n     *  Events\n     */\n    event CertificateAdded(\n        address issuer,\n        uint256 validityStart,\n        uint256 validityEnd,\n        uint256 serialID\n    );\n\n    event NewVote(\n        address voter,\n        address issuer,\n        uint256 serialID,\n        bool valid,\n        uint256 votes\n    );\n\n    event A(string debug);\n\n    /*\n     *  Public Functions\n     */\n\n    /// @dev Set the contract for the associated token\n    /// @param _tokenAddress Address for the associated token\n    function setToken(\n        address _tokenAddress\n    )\n        public\n        onlyOwner\n    {\n        token = CertToken(_tokenAddress);\n    }\n\n    /// @dev Set the contract for the associated crowdsale. Must be called\n    // after the token is set\n    /// @param _crowdsaleAddress Address for the associated crowdsale\n    function setCrowdsale(\n        address _crowdsaleAddress\n    )\n        public\n        onlyOwner\n    {\n        crowdsale = DeCertCrowdsale(_crowdsaleAddress);\n        token.approve(_crowdsaleAddress, token.totalCirculation());\n    }\n\n    /// @dev Add a certificate to the chain\n    /// @param _duration how long is the cert valid for\n    /// @param _serialID unique ID for the cert based on issuer\n    function addCertificate(\n        string _domain,\n        uint256 _serialID,\n        uint256 _duration\n    )\n        public\n    {\n        _addCertificate(\n            msg.sender,\n            _domain,\n            _duration,\n            _serialID\n        );\n    }\n\n    function _addCertificate(\n        address _issuer,\n        string _domain,\n        uint256 _duration,\n        uint256 _serialID\n    )\n        internal\n    {\n        // ensure that the certificate wasn't already created\n        require (certificateMap[_issuer][_serialID].issuer == address(0));\n\n        // calculate the certificate expiration\n        uint256 expire = now + _duration;\n\n        // create the certificate\n        Certificate memory cert = Certificate(\n            _issuer,\n            _domain,\n            now,\n            expire,\n            _serialID,\n            0,\n            0,\n            certList.length\n        );\n\n        // store the certificate\n        certificateMap[_issuer][_serialID] = cert;\n        certList.push(cert);\n\n        CertificateAdded(_issuer, now, _duration, _serialID);\n    }\n\n    /// @dev Vote on whether or not a particular certificate is valid\n    /// @param _issuer who issued the certificate\n    /// @param _serialID what is the ID of the certificate\n    /// @param _valid is the cert valid or not\n    /// @param _votes how many votes to spend\n    function voteOnCert(\n        address _issuer,\n        uint256 _serialID,\n        bool _valid,\n        uint256 _votes\n    )\n        public\n    {\n        _voteOnCert(\n            msg.sender,\n            _issuer,\n            _serialID,\n            _valid,\n            _votes\n        );\n    }\n\n    function _voteOnCert(\n        address _voter,\n        address _issuer,\n        uint256 _serialID,\n        bool _valid,\n        uint256 _votes\n    )\n        internal\n    {\n        Certificate storage cert = certificateMap[_issuer][_serialID];\n\n        // require that it is a valid cert to prevent wasting tokens\n        require(cert.issuer != address(0));\n\n        // transfer tokens to the decert contract\n        token.transferFrom(_voter, this, _votes);\n\n        // increase the approval of the crowdsale to spend the\n        // money in this contract\n        token.increaseApproval(crowdsale, _votes);\n\n        // add the votes to the struct\n        if (_valid) {\n            cert.validVotes += _votes;\n        } else {\n            cert.invalidVotes += _votes;\n        }\n\n        // update in our list as well\n        certList[cert.listID] = cert;\n\n        // store the vote and emit an event\n        votesList.push(Vote(\n            _voter,\n            cert,\n            _valid,\n            _votes\n        ));\n        NewVote(_voter, _issuer, _serialID, _valid, _votes);\n    }\n\n    /// @dev Read properties of a cert from the chain\n    function getCertificate(\n        address _issuer,\n        uint256 _serialID\n    )\n        public\n        view\n        returns (\n            address issuer,\n            uint256 serialID,\n            uint256 validityStart,\n            uint256 validityEnd,\n            uint256 validVotes,\n            uint256 invalidVotes\n        )\n    {\n        Certificate memory cert = certificateMap[_issuer][_serialID];\n        issuer = cert.issuer;\n        validityStart = cert.validityStart;\n        validityEnd = cert.validityEnd;\n        serialID = cert.serialID;\n        validVotes = cert.validVotes;\n        invalidVotes = cert.invalidVotes;\n    }\n\n    function getCertificateByID(\n        uint _certID\n    )\n        public\n        view\n        returns (\n            address issuer,\n            uint256 serialID,\n            uint256 validityStart,\n            uint256 validityEnd,\n            uint256 validVotes,\n            uint256 invalidVotes\n        )\n    {\n        Certificate memory cert = certList[_certID];\n        issuer = cert.issuer;\n        validityStart = cert.validityStart;\n        validityEnd = cert.validityEnd;\n        serialID = cert.serialID;\n        validVotes = cert.validVotes;\n        invalidVotes = cert.invalidVotes;\n    }\n\n    function getVote(\n        uint _voteID\n    )\n        public\n        view\n        returns(\n            address voter,\n            uint listID,\n            bool valid,\n            uint256 votes\n        )\n    {\n        Vote memory vote = votesList[_voteID];\n\n        voter = vote.voter;\n        listID = vote.cert.listID;\n        valid = vote.valid;\n        votes = vote.votes;\n    }\n}\n",
  "sourcePath": "/Users/leohentschker/decert/contracts/DeCert.sol",
  "compiler": {
    "name": "solc",
    "version": "0.4.18+commit.9cf6e910.Emscripten.clang"
  },
  "schemaVersion": "1.0.1",
  "updatedAt": "2018-05-01T23:13:41.366Z"
}